:1002A100010C00010A00010F0002080000010B000F
:0402B100020D00003A
:1002ED00C290C2B2C2B3C2B4C2B51202D7D2AF125B
:0402FD00000E80FB74
:10000E00E5094508600302013575080075090112FE
:10001E0002BC8F0CE50C650F550CF50A850C0F24F0
:10002E00FE601314601524FE601614601C24057007
:10003E001B750B058016750B078011750B01800C57
:10004E007FAA7E661202158003750B03E50B14B4AE
:10005E000800400302013590007375F003A4C583B8
:10006E0025F0C5837302008B02009A0200B80200CD
:10007E00C30200DE0200E902010C020117E50C6466
:10008E00036003020135750B02020131E50CB40366
:10009E0014D3E50E942CE50D940150030201357F27
:1000AE00007EFF804AE4F50B8079E50C64067077DC
:1000BE00750B04806EE50CB40611D3E50E942CE599
:1000CE000D940140627F557E448024E4F50B8053ED
:1000DE00E50C64017051750B068048E50CB40119EE
:1000EE00D3E50E942CE50D9401403C7FAA7E55126B
:1000FE0002157F647E0002031DE4F50B8025E50CDE
:10010E00B40224750B08E4801AE50CB40212D3E590
:10011E000E942CE50D9401400E7F557EAA02021519
:08012E00E4F50BF50DF50E22BE
:03000B000201C22D
:1001C200C0E0C0D0758A20758CD1E50B6402601145
:1001D200E50B6404600BE50B64066005E50BB408EF
:1001E20008050EE50E7002050D300010E51915190F
:1001F20070021518E51945187002C2000509E509D3
:1002020070020508640A45087004F508F509D0D0A3
:03021200D0E03207
:1002D700438E805389F0438901758A20758CD1C27A
:0602E7008DD28CD2A92289
:0A031D008E188F19D2002000FD2277
:1002BC00E4FF30B3010F30B5027F0230B1027F038F
:0A02CC0030B0027F0530B2027F0659
:0102D6002205
:0602B50002180000C10068
:100267008E168F17E5171517AE16700215164E6006
:0E0277000CD290120003C29012033180E722D5
:100285008E168F17E5171517AE16700215164E60E8
:0C0295000AC29012000312033180E9221B
:0E0301007F437E001202677F437E000202856A
:0E030F007F437E001202677F967E0002028509
:040215008E108F11A7
:10021900E4F512F513F514F5157F567E0112026700
:100229007FAA7E00120285851012851113E4F51448
:10023900F515E51330E00512030F8003120301E5FC
:1002490012C313F512E51313F5130515E51570021D
:0E0259000514C39410E514940040D70203016D
:040003007F18DFFE85
:0100070022D6
:040331007F2CDFFE40
:0103350022A5
:0A0327008E188F19D2002000FD226D
:03000000020136C4
:0C013600787FE4F6D8FD75812002017D81
:100142000202EDE493A3F8E493A34003F68001F2E4
:1001520008DFF48029E493A3F85407240CC8C333BE
:10016200C4540F4420C8834004F456800146F6DF8D
:10017200E4800B01020408102040809002A1E47E7A
:10018200019360BCA3FF543F30E509541FFEE49382
:10019200A360010ECF54C025E060A840B8E493A349
:1001A200FAE493A3F8E493A3C8C582C8CAC583CA74
:1001B200F0A3C8C582C8CAC583CADFE9DEE780BE2C
:0102BB000042
:00000001FF
