:10138F002020202000302E302E302E0025332E31FD
:02139F006600E6
:1011D800022B0000014D000129000422000000003C
:1011E800012A00012600C109022D0000012F00017B
:1011F80043000128000127FF093AFFFEFDFBF7EF36
:10120800DFBF7F01560002310000044400000000E7
:0C121800013000014C0004480000000000
:1010ED00759290E4F591C2971213F412133A1213FC
:1010FD00501213661213A1121256AC06AD07E4126C
:10110D000342E4FBFA7980784112022712037B8EA9
:10111D00318F32E5326455453160DCD2AF755AFFFF
:10112D00755B13755C8F7B007A0079331206E3755E
:10113D005A00755B00755C4E7B007A007933120D99
:10114D0084C294C296C295120AF6121164120FC38C
:07115D00AF301213B080F067
:100AF600E5296003020C8375290185232AE52A244A
:100B0600BC607024EF7003020C2624AB7003020B4A
:100B1600D124AB600D24996003020C837526010273
:100B26000C80E52664027048E543C3940450020530
:100B360043E556C3940450020556743A2556F8E622
:100B4600F5277F641213C8E543B4010FE530C3945B
:100B560008501D74052530F5308015E543C3940211
:100B6600400EE54394045008E530940850020530E1
:100B7600020C80E5266402704F7F641213C8E543B9
:100B8600D3940040021543E556D39400400215560F
:100B9600743A2556F8E6F527E543C394035012E563
:100BA60043C39401400BE530D39408501B153080A5
:100BB60017E5437013E530D39408500CE5309400E4
:100BC600400674FB2530F530020C807F641213C892
:100BD60078447F007E007D807CBF1203B2E4FBFA7E
:100BE600F9F81202C44009E4F547F546F545F5441F
:100BF600E4FFFEFDFCAB47AA46A945A8441202C481
:100C06007004C296D295E4FFFE7D807C3FAB47AA76
:100C160046A945A8441202C47004D296D295805AB9
:100C26007F641213C878447F007E007D807C3F126B
:100C360003B2E4FBFA794078401202C46002500B1A
:100C4600E4F547F546754540754440E4FFFEFD7CF6
:100C560040AB47AA46A945A8441202C47004D296DE
:100C6600D295E4FFFE7D407C40AB47AA46A945A845
:0E0C7600441202C47004D296C295E4F5232203
:100FC300E52C452B6003021060752B00752C01E5A1
:100FD3002624FE603C0470737FC81213C8755AFF41
:100FE300755B13755C947B007A0079331206E375A5
:100FF3005A00755B00755C4E7B007A007933120DE5
:10100300847F647E001213D2C296D2957526028025
:101013003A121256AC06AD07E4120342E4FBFA7926
:10102300807841120227AB47AA46A945A84412007B
:101033002D8F608E5F8D5E8C5D755AFF755B1375AA
:101043005C9B7B007A0079331206E3755A00755B6B
:0E10530000755C4E7B007A007933120D84220A
:03001B00020F11C0
:100F1100C0E0C0F0C083C082C0D075D000C000C0A6
:100F210001C002C003C004C005C006C007052CE50E
:100F31002C7002052BFFAE2BBE0309BF2006752BBB
:100F410000752C000529E529B4320375290005280F
:100F5100E528B43203752800054CE54CB40A037545
:100F61004C00758BCD758DD4052FE52FB409037514
:100F71002F00300910E52E152E7002152DE52E4596
:100F81002D7002C209E526B402035327BFAF271211
:100F910013DCE54DB40303754D007B007A00794EF7
:100FA100AD4D1212C9054DD007D006D005D004D0E1
:100FB10003D002D001D000D0D0D082D083D0F0D0E5
:020FC100E0321C
:03000B000213EDF0
:0713ED00758AA4758CFF3224
:100C8400E54C6003020D83754C017F0212137BEF68
:100C940075F004A4FFADBEE5F0FCEF4DFDE41203D6
:100CA40042E4FBFA79A0783B12011E8F4B8E4A8DE9
:100CB400498C487F667E667D967C40AB4BAA4AA9E8
:100CC40049A8481202C4501BE4FFFE7D907C40AB4F
:100CD4004BAA4AA949A8481202C4600740055327F1
:100CE400EF8003432710E4FFFE7D907C40AB4BAACA
:100CF4004AA949A8481202C4501C7F9A7E997D894A
:100D04007C40AB4BAA4AA949A8481202C4600740D8
:100D1400055327DF80034327207F9A7E997D897CB2
:100D240040AB4BAA4AA949A8481202C4501C7F33BD
:100D34007E337D837C40AB4BAA4AA949A848120262
:100D4400C4600740055327BF80034327407F337E99
:100D5400337D837C40AB4BAA4AA949A8481202C4FC
:100D6400501AE4FFFE7D807C40AB4BAA4AA949A8F7
:100D7400481202C46006400453277F22432780227E
:0C13B000E52FC39F5003D29422C2942268
:0A13C800D2977E001213D2C29722C2
:0A13D2008E2D8F2ED2092009FD2276
:041306007F057E00E1
:10130A00EF1FAA0670011E4A600BE4FDEDC3941498
:05131A0050EE0D80F70C
:01131F0022AB
:0212E800A90754
:1012EA00E4FBC2B3E91392B3121306D2B3E9C313F0
:0C12FA00F90BBB08ED7F057E0002130A13
:10132000E4FBC2B3ECC313FCD2B330B30343048079
:091330001213060BBB08EBAF041D
:011339002291
:10122F00C200D2B37F0C7E0012130AC2B37F507E6E
:10123F000012130AD2B37F0A7E0012130AA2B392CE
:06124F0000121306A200CC
:011255002276
:1012560012122F7FCC1212E87F441212E812122FBC
:101266007FCC1212E87FBE1212E8121320A90712D1
:061276001320EFFEE9FF6A
:01127C00224F
:0A122400020A000002080000C10ADF
:0713F400D2B2D288D2A82278
:0300030002000EEA
:0D000E00758C00758A00C28DD28CD20A322A
:10116400300A70C2A830B2FDC28CAF8CEFFEAD8ADB
:101174007C00E42DF50BEC3EF50AC3E50B9434E555
:101184000A9421404AD3E50B94F8E50A942A4002D4
:10119400803DE4F58CF58AC28DD28C20B2FDC28CE0
:1011A400AF8CEFFEAD8A7C00E42DF509EC3EF5082A
:1011B400D3E50994ACE508940D500BC3E509949468
:1011C400E508941150097B007A007922120E5BC263
:0411D4000AD2A82271
:060E5B008B578A588959EB
:100E6100E4F55AF55BF55CF55AE4F55BE55CC31313
:100E7100F55CE4F58AF58CD28C30B2FDC28CAF8C76
:100E8100EFFEAD8A7C00E42DF50BEC3EF50AE4F5AE
:100E91008AF58CD28C20B2FDC28CAF8CEFFEAD8A6C
:100EA1007C00E42DF509EC3EF508C3E50B94DCE587
:100EB1000A9405405AD3E50994DCE5089405400DF0
:100EC100E50994C4E50894095003535C7FD3E5090F
:100ED10094B8E508940B400DE5099488E50894134E
:100EE1005003435C80055BE55B64086003020E6DA3
:100EF100AB57AA58A959855A82758300E55C120639
:0F0F010008E4F55C055AE55A64026003020E6AC3
:010F100022BE
:0913DC0075A0FF8FA075B07F22FF
:060D84008B578A588959C3
:100D8A00E4F55DF55EF55FF55DE55DC3940340034B
:100D9A00020E5AAB57AA58A959855E82758300126A
:100DAA0005C91206610E1B200E162D0DE3300DE546
:100DBA00310DEA320DEF330DF4340DF9350DFB36F2
:100DCA000E00370E05380E0A390E0F410E11420E6B
:100DDA0022480E1D5300000E1B802C755FF98040BF
:100DEA00755FA4803B755FB08036755F99803180EE
:100DFA0022755F82802A755FF88025755F80802062
:100E0A00755F90801B8000755FC08014755FBF801E
:100E1A000F800A755F928008755F898003755FFF8E
:100E2A00855E82758300A3AB57AA58A9591205C9D2
:100E3A00B42E05535F7F055EAB5AAA5BA95C855D3C
:100E4A0082758300E55F120608055D055E020D9353
:010E5A002275
:1012C90075A0FF74EFA805088002C333D8FC440752
:0F12D900F5B0AF058F827583001205C9F5A0220D
:0613FB0000007F39DFFE57
:0114010022C8
:10133A00538E7F5389F0438901758AA4758CFFC245
:06134A008DD28CD2A92215
:10135000438E4053890F438910758BCD758DD4C250
:061360008FD28ED2AB22F9
:1013660053877F759850438E04759CDC438E0143EA
:051376008E10D2AC2234
:0813E5008F993099FDC2992295
:1012A4008B168A178918AB16AA17A9181205B060ED
:1012B400130518E5187002051714F91205B0FF128A
:0512C40013E580E222A9
:03002300021402C2
:06140200309802C298328E
:0F13A100759D04E4F5BD75BC8A1213BC0213BC24
:10137B00EF4488F5BC00000000E5BC30E4FB53BC37
:04138B00EFAFBD22E1
:0B13BC000000007F0B7EBEDEFEDFFCA9
:0113C7002203
:100026000203F9E86480F8E933E83360110460F00C
:10003600ED33EC337009E8FCE9FDEAFEEBFF220440
:1000460060DED3EB9FEA9EE99DE8C2E78CF0C2F73B
:1000560095F0400CE8CCF8E9CDF9EACEFAEBCFFB07
:100066001203C485D0F05804700320D5B3E8047099
:10007600075002B2D502040392D5EC0460F7E4CC33
:10008600C0E0C398F8603B94186008400DD0E0FBD0
:100096000203DBE4FBFAC9FC8028E830E406E4C985
:1000A600FBE4CAFCE830E305E4C9CACBFCE8540724
:1000B6006010F8C3E913F9EA13FAEB13FBEC13FC2F
:1000C600D8F130F52FC3E49CFCEF9BFFEE9AFEEDD2
:1000D60099FDD0E0FBEF4E4D4C701222DB0302047B
:1000E60000EC2CFCEF33FFEE33FEED33FDED30E795
:1000F600EB0203DBEF2BFFEE3AFEED39FDD0E0FB22
:1001060050130BBB0003020403ED13FDEE13FEEFC9
:0801160013FFEC13FC0203DBF4
:10011E00EC4D6011E8497017ED33EC3304600DE4DB
:10012E00FCFFFEFD22E933E8330470F80203F912F6
:10013E0003C458046009E4CC2481500628500902F7
:10014E000403284003020400C0E0EB4A7044B98067
:10015E0006D0E0FB0203EFEF4E701CBD8008EBFFF4
:10016E00EAFEE9FD80EBE98DF0A4FEE5F002020760
:10017E00E9CDF9EAFEEBFFEF89F0A4FCE5F0CE89BC
:10018E00F0A42EFFE435F0CD89F0A42DFEE435F079
:10019E008067EF4E7005BD80D780C3EF8BF0A4ACA7
:1001AE00F0EE8BF0A42CFCE435F0F8EF8AF0A42CE2
:1001BE00E5F038FCE433CB8DF0A42CFCE5F03BF8F5
:1001CE00EE8AF0A42CFCE5F038F8E433CF89F0A4E5
:1001DE002CFCE5F038CF3400CE89F0A42FFFE5F0EB
:1001EE003EFEE433C98DF0A42EFEE5F039CD8AF043
:1001FE00A42FFFE5F03EFEE43DFD33D0E0FB5007BB
:10020E000BBB000F020403EC2CFCEF33FFEE33FEAE
:06021E00ED33FD0203DBDD
:10022400020403EC5D046005E8590470030203F959
:100234001203C4580460F6EC4860F2EC7004FDFE4E
:10024400FF22C860DB2481C85009C39860025006AD
:100254000204009850CAF582E9294B4A7005AB8222
:100264000203EF75F0007C1A7880C3EF9BEE9AEDE1
:1002740099400DC3EF9BFFEE9AFEED99FDE842F025
:10028400DC23ACF0D0E0FFD0E0FED0E0FDAB822078
:10029400E7101BEB60BAEC2CFCEF33FFEE33FEED02
:1002A40033FD0203DBE803F830E705C0F075F00026
:1002B400EF2FFFEE33FEED33FD40B830E7C280AAE6
:1002C40074F8CC6480CCC86480C8F58204604FC3E1
:1002D400EB9FF5F0EA9E42F0E99D42F0E89C45F080
:1002E400603C501DE5825FFFE582D313CB5BCBF40A
:1002F4002B5582FB50280ABA002409B90020088033
:100304001DE5825BFBE582D313CF5FCFF4C3132FCC
:100314005582FF50090EBE00050DBD00010CC3EB54
:100324009FF5F0EA9E42F0E99D42F0E89C45F060BA
:0903340007CC4820E701B3EC22DC
:10033D0075F020800E75F010800575F0087D007E3B
:10034D00007F003392D530D50312062AEC334010CE
:10035D00EF33FFEE33FEED33FDEC33FCD5F0ED2244
:0E036D00E5F0247EA2D513CC92E7CDCEFF2280
:10037B00EDD2E7CD33EC3392D524814006E4FFFE7A
:10038B00FDFC22FCE4CFCECDCC24E0501174FF80D9
:10039B00EDC3CC13CCCD13CDCE13CECF13CF047076
:0703AB00F030D5DE02062A46
:1003B20088827D80E4FEFF12063812002DA8820298
:0203C2000645EE
:10068700E56E245AF8E6056E227857300702785A45
:10069700E475F0011206510205B02000EB7F2ED25F
:1006A700008018EF540F2490D43440D4FF30040B4B
:1006B700EF24BFB41A0050032461FFE56F600215F1
:1006C7006F0572E5727002057130070D7857E47592
:1006D700F001120651EF0205F602127D7403D207EC
:1006E7008003E4C207F56E8B578A588959E4F56F82
:1006F700F571F572E56F60077F201206C280F57508
:1007070070FFC201C200C202C203C205C206C2080C
:10071700120690FF700D3007057F001206D3AF72E7
:10072700AE7122B4255FC2D5C204120690FF24D051
:10073700B40A00501A75F00A786F30D50508B6FF6D
:100747000106C6A426F620D5047002D20380D92458
:10075700CFB41A00EF5004C2E5D2040209C0D20197
:1007670080C6D20080C0D20280BCD2D580BAD20562
:1007770080B47F201206C22002077401B56F0040C3
:10078700F1120687FF1206C20206FBD208D20680C4
:1007970095120687FB120687FA120687F94A4B70ED
:1007A7000679B77A0A7BFF20022EE56F602A7E0062
:1007B7008E827583001205C960060EEE657070F0B3
:1007C700C2D5EBC0E0EAC0E0E9C0E0EE120A20D0F3
:1007D700E0F9D0E0FAD0E0FB1205B0FF60AAEBC069
:1007E700E0EAC0E0E9C0E01206C2D0E02401F9D097
:1007F700E03400FAD0E0FBE5700460DCD570D98006
:1008070087D20280A2120A0360F7E5707001041212
:10081700040EA970600DE570600914F570120AAA3C
:10082700EF60F3EA30E702F404C3995077EAF4255E
:10083700700430E701E404F570800D120A0360C10B
:10084700EA0570257012040EEA786DF630E701E4C8
:10085700257004D5700420050114120A20E4C0E0B5
:10086700120AAA786DE6601320E70714F61206AAA3
:10087700802204F6D0E014C0E07F001206AAE570DB
:1008870060071206A11570800B3005031206A1D070
:10089700E00206FBD0E00480C5120A0360A0E57001
:1008A7000412040E786DEAF6E57020050260010473
:0508B7002404120A20D8
:1008BC0074FF04C0E0120AAA1206AAE57020050211
:1008CC0060031206A1D0E0B570E87F451206B4783B
:1008DC006DE67F2B30E7047F2DF404C0E01206C2D6
:1008EC00D0E075F00A84C0F01206ABD0E01206AB73
:1008FC000206FB791080027908C206C2088008D271
:10090C00D5790A8004790AC2D5E570047002F570B5
:10091C00E4FAFDFEFF120687FC7B08200113120689
:10092C0087FD7B1030000A120687FE120687FF7BBC
:10093C0020EC3382D592D55013C3E43000069FFFD0
:10094C00E49EFEE42001039DFDE49CFCE4CBF8C294
:10095C0001EC700CCFCECDCCE824F8F870F38017F6
:10096C00C3EF33FFEE33FEED33FDEC33FCEB33FB27
:10097C00994002FB0FD8E9EB300105F8D0E0C448F0
:10098C00B201C0E00AEC4D4E4F78207B0070C2EAF9
:10099C00B5700040BCC0E0120A22D0F0D0E02001BB
:1009AC0004C4C0E0C4B201C0F01206ABD0F0D5F064
:1009BC00EB0206FB12066107985308FF5807694CB7
:1009CC0007654209034F090B44090B49077E43098C
:1009DC00115508424608A045080C470AD750076D28
:1009EC002D07712E07942B0775230792200AC02A16
:1009FC00072D480000078CE570B4FF0375700612D4
:100A0C000687FC120687FD120687FE120687FF7802
:100A1C006602043D790AA2D5200314300509B910E9
:100A2C00020404B9080104A2D520060250010420D6
:100A3C0002689202B56F005034C0E07F2030031979
:100A4C007F30A20272067205500F120A79C202C2DE
:100A5C0006C205C2087F30800F300503E9C0E012E2
:100A6C0006C2300503D0E0F9D0E0B56FCC300517E5
:100A7C007F30B9100C1206C27F583004077F788083
:100A8C0003B908031206C23002057F2D0206C27F8D
:100A9C00202008F87F2B2006F322920280CF7F00C3
:100AAC00B4070050052466F8E6FF22286E756C6CBE
:100ABC002900D2011206873001F8C201786F30D5B7
:100ACC000108F602072D2D504349581206872403BE
:100ADC00B405004001E4900AD2931206B3743A12A2
:0A0AEC0006B3D203756F040208FF81
:1003C400E9D2E7C933E833F892D5EDD2E7CD33EC7F
:0703D40033FC5002B2D522F8
:1003DB00EC30E7100FBF000C0EBE00080DBD000483
:1003EB000BEB6014A2D5EB13FCED92E7FD2274FF2F
:1003FB00FCFDFEFF22E480F8A2D574FF13FC7D8088
:03040B00E480EF9B
:10040E00F920E72824F950037907E4F42402FB18B5
:10041E00DBFDE624FB5014E9600DE4F618E604F665
:0F042E00B40A08E4F6D9F57401F60A22C2D52201
:10043D00ED33EC3392D5FA602AB4FF33EDC2E77B8E
:10044D00FF60067A047962E4227A04796B20D50480
:10045D007A047966224E614E002B494E46002D4995
:10046D004E4600E47A08F608DAFC7B00740722E8B1
:10047D00C0E0ECC0E0EDC0E0EEC0E0EFC0E0EA753A
:10048D00F010A4CAABF075F04DA42BFBE435F0FCD5
:10049D00EA2410FAEB34C5FBEC34D9FCEDC2E7FFCE
:1004AD0075F056A4F42411C5F0F434C58FF0A42AC8
:1004BD00E5F03BE43CF620E714120570D0E0FFD0E8
:1004CD00E0FED0E0FDD0E0FC1202278014F404120F
:1004DD000570D0E0FFD0E0FED0E0FDD0E0FC1201D1
:1004ED001ED0E0F8E6FAEDD2E7CD33EC332482FBF3
:1004FD00E4C3CF33CFCE33CECD33CD33DBF37B0758
:10050D0075F00A846004F6081B0AE5F0F6088FF012
:10051D00740AA4FFACF08EF0740AA42CFEACF0505B
:10052D00010C8DF0740AA42CFDE435F0F608DBDE29
:03053D007407221E
:100540003F8000004120000042C80000447A0000C3
:10055000461C400047C35000497424004B18968045
:100560004CBEBC205A0E1BCA6753C21C749DC5AE3C
:10057000FB60065407601C232312059EEB54386071
:100580000912058A12059912011EECF8EDF9EEFA2E
:10059000EFCB22EB12059980F1543803241C90050F
:1005A00040FE93FC0EEE93FD0EEE930ECE93FF22D3
:030000000210618A
:0C106100787FE4F6D8FD7581720210A8BB
:1005B000BB010689828A83E0225002E722BBFE0249
:0905C000E32289828A83E493227C
:1005C900BB010CE58229F582E5833AF583E02250E7
:1005D90006E92582F8E622BBFE06E92582F8E22231
:0D05E900E58229F582E5833AF583E493224B
:1005F600BB010689828A83F0225002F722BBFE01E4
:02060600F322DD
:10060800F8BB010DE58229F582E5833AF583E8F028
:10061800225006E92582C8F622BBFE05E92582C8D4
:02062800F222BC
:0E062A00C3E49FFFE49EFEE49DFDE49CFC22E1
:0D063800E6FB08E6F908E6FA08E6CBF82232
:0C064500ECF608EDF608EEF608EFF622E1
:10065100FAE6FB0808E6F925F0F618E6CA3AF622AA
:10066100D083D082F8E4937012740193700DA3A328
:1006710093F8740193F5828883E47374029368603C
:06068100EFA3A3A380DF3C
:10127D00EFB40A07740D121288740A309811A899E8
:10128D00B8130CC2983098FDA899C298B811F630D1
:07129D0099FDC299F59922A9
:10106D000210EDE493A3F8E493A34003F68001F29C
:10107D0008DFF48029E493A3F85407240CC8C33384
:10108D00C4540F4420C8834004F456800146F6DF53
:10109D00E4800B01020408102040809011D8E47EFA
:1010AD00019360BCA3FF543F30E509541FFEE49348
:1010BD00A360010ECF54C025E060A840B8E493A30F
:1010CD00FAE493A3F8E493A3C8C582C8CAC583CA3A
:1010DD00F0A3C8C582C8CAC583CADFE9DEE780BEF2
:01122E0000BF
:00000001FF
